{
  "contractName": "Real",
  "abi": [
    {
      "inputs": [],
      "payable": false,
      "stateMutability": "nonpayable",
      "type": "constructor",
      "signature": "constructor"
    },
    {
      "constant": false,
      "inputs": [
        {
          "name": "_longitude",
          "type": "string"
        },
        {
          "name": "_latitude",
          "type": "string"
        },
        {
          "name": "_bin",
          "type": "uint256"
        },
        {
          "name": "_zipcode",
          "type": "string"
        },
        {
          "name": "_street",
          "type": "string"
        },
        {
          "name": "_borough",
          "type": "string"
        }
      ],
      "name": "setBuilding",
      "outputs": [],
      "payable": false,
      "stateMutability": "nonpayable",
      "type": "function",
      "signature": "0x3d6a881a"
    },
    {
      "constant": true,
      "inputs": [
        {
          "name": "_borough",
          "type": "string"
        }
      ],
      "name": "getBins",
      "outputs": [
        {
          "name": "",
          "type": "uint256[]"
        }
      ],
      "payable": false,
      "stateMutability": "view",
      "type": "function",
      "signature": "0x439545cc"
    },
    {
      "constant": true,
      "inputs": [
        {
          "name": "_bin",
          "type": "uint256"
        }
      ],
      "name": "getBuilding",
      "outputs": [
        {
          "name": "",
          "type": "string"
        },
        {
          "name": "",
          "type": "string"
        },
        {
          "name": "",
          "type": "uint256"
        },
        {
          "name": "",
          "type": "string"
        },
        {
          "name": "",
          "type": "string"
        },
        {
          "name": "",
          "type": "string"
        }
      ],
      "payable": false,
      "stateMutability": "view",
      "type": "function",
      "signature": "0x9dfd8b02"
    }
  ],
  "bytecode": "0x608060405234801561001057600080fd5b50611281806100206000396000f3fe608060405260043610610057576000357c0100000000000000000000000000000000000000000000000000000000900463ffffffff1680633d6a881a1461005c578063439545cc1461038a5780639dfd8b02146104a7575b600080fd5b34801561006857600080fd5b50610388600480360360c081101561007f57600080fd5b810190808035906020019064010000000081111561009c57600080fd5b8201836020820111156100ae57600080fd5b803590602001918460018302840111640100000000831117156100d057600080fd5b91908080601f016020809104026020016040519081016040528093929190818152602001838380828437600081840152601f19601f8201169050808301925050505050505091929192908035906020019064010000000081111561013357600080fd5b82018360208201111561014557600080fd5b8035906020019184600183028401116401000000008311171561016757600080fd5b91908080601f016020809104026020016040519081016040528093929190818152602001838380828437600081840152601f19601f82011690508083019250505050505050919291929080359060200190929190803590602001906401000000008111156101d457600080fd5b8201836020820111156101e657600080fd5b8035906020019184600183028401116401000000008311171561020857600080fd5b91908080601f016020809104026020016040519081016040528093929190818152602001838380828437600081840152601f19601f8201169050808301925050505050505091929192908035906020019064010000000081111561026b57600080fd5b82018360208201111561027d57600080fd5b8035906020019184600183028401116401000000008311171561029f57600080fd5b91908080601f016020809104026020016040519081016040528093929190818152602001838380828437600081840152601f19601f8201169050808301925050505050505091929192908035906020019064010000000081111561030257600080fd5b82018360208201111561031457600080fd5b8035906020019184600183028401116401000000008311171561033657600080fd5b91908080601f016020809104026020016040519081016040528093929190818152602001838380828437600081840152601f19601f820116905080830192505050505050509192919290505050610712565b005b34801561039657600080fd5b50610450600480360360208110156103ad57600080fd5b81019080803590602001906401000000008111156103ca57600080fd5b8201836020820111156103dc57600080fd5b803590602001918460018302840111640100000000831117156103fe57600080fd5b91908080601f016020809104026020016040519081016040528093929190818152602001838380828437600081840152601f19601f82011690508083019250505050505050919291929050505061093a565b6040518080602001828103825283818151815260200191508051906020019060200280838360005b83811015610493578082015181840152602081019050610478565b505050509050019250505060405180910390f35b3480156104b357600080fd5b506104e0600480360360208110156104ca57600080fd5b8101908080359060200190929190505050610dc9565b60405180806020018060200187815260200180602001806020018060200186810386528c818151815260200191508051906020019080838360005b8381101561053657808201518184015260208101905061051b565b50505050905090810190601f1680156105635780820380516001836020036101000a031916815260200191505b5086810385528b818151815260200191508051906020019080838360005b8381101561059c578082015181840152602081019050610581565b50505050905090810190601f1680156105c95780820380516001836020036101000a031916815260200191505b50868103845289818151815260200191508051906020019080838360005b838110156106025780820151818401526020810190506105e7565b50505050905090810190601f16801561062f5780820380516001836020036101000a031916815260200191505b50868103835288818151815260200191508051906020019080838360005b8381101561066857808201518184015260208101905061064d565b50505050905090810190601f1680156106955780820380516001836020036101000a031916815260200191505b50868103825287818151815260200191508051906020019080838360005b838110156106ce5780820151818401526020810190506106b3565b50505050905090810190601f1680156106fb5780820380516001836020036101000a031916815260200191505b509b50505050505050505050505060405180910390f35b61071a611179565b60c0604051908101604052808881526020018781526020018681526020018581526020018481526020018381525090506000826040518082805190602001908083835b602083101515610782578051825260208201915060208101905060208303925061075d565b6001836020036101000a0380198251168184511680821785525050505050509050019150509081526020016040518091039020819080600181540180825580915050906001820390600052602060002090600602016000909192909190915060008201518160000190805190602001906107fd9291906111b0565b50602082015181600101908051906020019061081a9291906111b0565b506040820151816002015560608201518160030190805190602001906108419291906111b0565b50608082015181600401908051906020019061085e9291906111b0565b5060a082015181600501908051906020019061087b9291906111b0565b50505050806001600087815260200190815260200160002060008201518160000190805190602001906108af9291906111b0565b5060208201518160010190805190602001906108cc9291906111b0565b506040820151816002015560608201518160030190805190602001906108f39291906111b0565b5060808201518160040190805190602001906109109291906111b0565b5060a082015181600501908051906020019061092d9291906111b0565b5090505050505050505050565b6060806000836040518082805190602001908083835b6020831015156109755780518252602082019150602081019050602083039250610950565b6001836020036101000a0380198251168184511680821785525050505050509050019150509081526020016040518091039020805480602002602001604051908101604052809291908181526020016000905b82821015610d2f578382906000526020600020906006020160c06040519081016040529081600082018054600181600116156101000203166002900480601f016020809104026020016040519081016040528092919081815260200182805460018160011615610100020316600290048015610a855780601f10610a5a57610100808354040283529160200191610a85565b820191906000526020600020905b815481529060010190602001808311610a6857829003601f168201915b50505050508152602001600182018054600181600116156101000203166002900480601f016020809104026020016040519081016040528092919081815260200182805460018160011615610100020316600290048015610b275780601f10610afc57610100808354040283529160200191610b27565b820191906000526020600020905b815481529060010190602001808311610b0a57829003601f168201915b5050505050815260200160028201548152602001600382018054600181600116156101000203166002900480601f016020809104026020016040519081016040528092919081815260200182805460018160011615610100020316600290048015610bd35780601f10610ba857610100808354040283529160200191610bd3565b820191906000526020600020905b815481529060010190602001808311610bb657829003601f168201915b50505050508152602001600482018054600181600116156101000203166002900480601f016020809104026020016040519081016040528092919081815260200182805460018160011615610100020316600290048015610c755780601f10610c4a57610100808354040283529160200191610c75565b820191906000526020600020905b815481529060010190602001808311610c5857829003601f168201915b50505050508152602001600582018054600181600116156101000203166002900480601f016020809104026020016040519081016040528092919081815260200182805460018160011615610100020316600290048015610d175780601f10610cec57610100808354040283529160200191610d17565b820191906000526020600020905b815481529060010190602001808311610cfa57829003601f168201915b505050505081525050815260200190600101906109c8565b50505050905060608151604051908082528060200260200182016040528015610d675781602001602082028038833980820191505090505b50905060008090505b8251811015610dbe578281815181101515610d8757fe5b90602001906020020151604001518282815181101515610da357fe5b90602001906020020181815250508080600101915050610d70565b508092505050919050565b606080600060608060606001600088815260200190815260200160002060000160016000898152602001908152602001600020600101600160008a815260200190815260200160002060020154600160008b8152602001908152602001600020600301600160008c8152602001908152602001600020600401600160008d8152602001908152602001600020600501858054600181600116156101000203166002900480601f016020809104026020016040519081016040528092919081815260200182805460018160011615610100020316600290048015610eed5780601f10610ec257610100808354040283529160200191610eed565b820191906000526020600020905b815481529060010190602001808311610ed057829003601f168201915b50505050509550848054600181600116156101000203166002900480601f016020809104026020016040519081016040528092919081815260200182805460018160011615610100020316600290048015610f895780601f10610f5e57610100808354040283529160200191610f89565b820191906000526020600020905b815481529060010190602001808311610f6c57829003601f168201915b50505050509450828054600181600116156101000203166002900480601f0160208091040260200160405190810160405280929190818152602001828054600181600116156101000203166002900480156110255780601f10610ffa57610100808354040283529160200191611025565b820191906000526020600020905b81548152906001019060200180831161100857829003601f168201915b50505050509250818054600181600116156101000203166002900480601f0160208091040260200160405190810160405280929190818152602001828054600181600116156101000203166002900480156110c15780601f10611096576101008083540402835291602001916110c1565b820191906000526020600020905b8154815290600101906020018083116110a457829003601f168201915b50505050509150808054600181600116156101000203166002900480601f01602080910402602001604051908101604052809291908181526020018280546001816001161561010002031660029004801561115d5780601f106111325761010080835404028352916020019161115d565b820191906000526020600020905b81548152906001019060200180831161114057829003601f168201915b5050505050905095509550955095509550955091939550919395565b60c0604051908101604052806060815260200160608152602001600081526020016060815260200160608152602001606081525090565b828054600181600116156101000203166002900490600052602060002090601f016020900481019282601f106111f157805160ff191683800117855561121f565b8280016001018555821561121f579182015b8281111561121e578251825591602001919060010190611203565b5b50905061122c9190611230565b5090565b61125291905b8082111561124e576000816000905550600101611236565b5090565b9056fea165627a7a72305820296e6b991b46440f93a6989b857332a6dc448476dec0d505e951e1b9e34ebe1b0029",
  "source": "pragma solidity >=0.4.24 <0.6.0;\n\ncontract Real {\n\n    struct Building {\n        string Longitude;\n        string Latitude; \n        uint BIN; \n        string ZipCode;\n        string Street;\n        string Borough; \n    }\n\n    mapping(string => Building[]) boroughs;  // e.g. 'Queens' \n    mapping(uint => Building) buildingTable;   // key: BIN\n     \n    constructor() public {\n\n    }\n\n    function setBuilding(string memory _longitude,\n            string memory _latitude,\n            uint  _bin,\n            string memory _zipcode,\n            string memory _street,\n            string memory _borough) public {\n       \n        Building memory b = Building({\n            Longitude: _longitude,\n            Latitude: _latitude,\n            BIN: _bin,\n            ZipCode: _zipcode,\n            Street: _street,\n            Borough: _borough});\n\n        boroughs[_borough].push(b);\n        buildingTable[_bin] = b;\n    }\n\n    function getBins(string memory _borough) public view returns (uint[] memory) {\n          \n        Building[] memory b = boroughs[_borough];\n        uint[] memory _bins = new uint[](b.length);\n        for (uint i=0; i < b.length; i++) {            \n            _bins[i] = b[i].BIN;\n        }\n        return _bins;\n\n    }\n\n    function getBuilding(uint _bin) public view returns (\n        string memory,\n        string memory,\n        uint,\n        string memory,\n        string memory,\n        string memory\n    ) {\n        \n        return (\n            buildingTable[_bin].Longitude,\n            buildingTable[_bin].Latitude,\n            buildingTable[_bin].BIN,\n            buildingTable[_bin].ZipCode,\n            buildingTable[_bin].Street,\n            buildingTable[_bin].Borough\n        ); \n    }\n    \n    // function getBuildings(string memory _borough) public view returns (\n    //     string memory,\n    //     string memory,\n    //     string memory,\n    //     string memory,\n    //     string memory,\n    //     string memory) {\n\n    //     string[] memory _longitudes;\n    //     string[] memory _latitudes;\n    //     string[] memory _bins;\n    //     string[] memory _zipCodes;\n    //     string[] memory _streets;\n    //     string[] memory _boroughs;\n\n    //     return  (\n    //        _longitudes,\n    //        _latitudes,\n    //        _bins,\n    //        _zipCodes,\n    //        _streets,\n    //        _boroughs);\n    // }\n}",
  "sourcePath": "/home/rmedal/hackathon/cHackathon/contracts/Real.sol",
  "compiler": {
    "name": "solc",
    "version": "0.5.0+commit.1d4f565a.Emscripten.clang"
  },
  "schemaVersion": "3.0.6",
  "updatedAt": "2019-05-12T05:16:50.127Z",
  "devdoc": {
    "methods": {}
  },
  "userdoc": {
    "methods": {}
  }
}